:020000041004E6
:1000000000000120112B0410751304107F1304103D
:1000100000000000000000000000000000000000E0
:100020000000000000000000000000008513041024
:1000300000000000000000008F130410991304104A
:10004000752B0410752B0410752B0410752B0410E0
:10005000000000000000000000000000752B0410EC
:10006000A9130410752B0410752B0410752B0410A4
:10007000752B0410E513041000000000752B04100C
:10008000752B0410752B04101914041000000000C7
:100090000B1404100000000000000000FD13041009
:1000A000752B041027140410752B0410752B0410E5
:1000B000752B04100000000000000000000000008C
:1000C00010B5904216D98AB2030C090C0C4659435C
:1000D00080B25343444350431B191A041B0C10189D
:1000E000594180225203002312184B41520DD8026D
:1000F000104310BD4843802252031218520D10467F
:1001000010BDC0468B0707D0013A22D30B780131CE
:10011000037001308B07F7D1830730D0DB4219D051
:100120000138043A08D308C943701B0A43801B0CEA
:1001300003710430043AF6D2D20707D30B88437018
:1001400001D08A78C2701B0A8370704701D00B7887
:1001500043707047043A06D308C903801B0C4380E0
:100160000430043AF8D2D20705D30B88038005D0B7
:100170008B788370704701D00B780370704770B430
:10018000103A03D378C978C0103AFBD2530701D391
:1001900018C918C001D508C908C0D20704D30B88F4
:1001A000038002300231002A01D50B78037070BC45
:1001B0007047C046EFF31482EFF30981154880F3CE
:1001C0001488BFF36F8FF0B543464C4655465E46E4
:1001D0006746F8B4104CEFF30883636006B4BFF3CE
:1001E0004F8F30BFC046C0460B4C646884F308880C
:1001F00082B003BCF8BC9846A146AA46B346BC46AA
:10020000F0BC04BC80F3098881F31488BFF36F8FBE
:100210001047C046000000000400002003B47146EF
:10022000490840004900095E49008E4403BC7047FC
:10023000002243088B4274D303098B425FD3030A25
:100240008B4244D3030B8B4228D3030C8B420DD338
:10025000FF22090212BA030C8B4202D312120902C6
:1002600065D0030B8B4219D300E0090AC30B8B4204
:1002700001D3CB03C01A5241830B8B4201D38B03B2
:10028000C01A5241430B8B4201D34B03C01A524157
:10029000030B8B4201D30B03C01A5241C30A8B429A
:1002A00001D3CB02C01A5241830A8B4201D38B0285
:1002B000C01A5241430A8B4201D34B02C01A524129
:1002C000030A8B4201D30B02C01A5241CDD2C3099B
:1002D0008B4201D3CB01C01A524183098B4201D317
:1002E0008B01C01A524143098B4201D34B01C01A02
:1002F000524103098B4201D30B01C01A5241C3087A
:100300008B4201D3CB00C01A524183088B4201D3E8
:100310008B00C01A524143088B4201D34B00C01AD4
:100320005241411A00D20146524110467047FFE740
:1003300001B5002000F0F0F802BDC0460029F7D05A
:1003400076E7704703460B437FD4002243088B4275
:1003500074D303098B425FD3030A8B4244D3030B4C
:100360008B4228D3030C8B420DD3FF22090212BA11
:10037000030C8B4202D31212090265D0030B8B428D
:1003800019D300E0090AC30B8B4201D3CB03C01A77
:100390005241830B8B4201D38B03C01A5241430B52
:1003A0008B4201D34B03C01A5241030B8B4201D342
:1003B0000B03C01A5241C30A8B4201D3CB02C01AAD
:1003C0005241830A8B4201D38B02C01A5241430A25
:1003D0008B4201D34B02C01A5241030A8B4201D314
:1003E0000B02C01A5241CDD2C3098B4201D3CB01BB
:1003F000C01A524183098B4201D38B01C01A52416A
:1004000043098B4201D34B01C01A524103098B426D
:1004100001D30B01C01A5241C3088B4201D3CB0058
:10042000C01A524183088B4201D38B00C01A52413B
:1004300043088B4201D34B00C01A5241411A00D2EB
:1004400001465241104670475DE0CA0F00D0494254
:10045000031000D34042534000229C4603098B42C4
:100460002DD3030A8B4212D3FC22890112BA030A4C
:100470008B420CD3890192118B4208D389019211CE
:100480008B4204D389013AD0921100E08909C30953
:100490008B4201D3CB01C01A524183098B4201D355
:1004A0008B01C01A524143098B4201D34B01C01A40
:1004B000524103098B4201D30B01C01A5241C308B8
:1004C0008B4201D3CB00C01A524183088B4201D327
:1004D0008B00C01A5241D9D243088B4201D34B0042
:1004E000C01A5241411A00D20146634652415B1084
:1004F000104601D34042002B00D549427047634665
:100500005B1000D3404201B5002000F005F802BDA9
:100510000029F8D016E770477047C04691400300A5
:1005200090409C46203A9340194352426346D34040
:10053000194370471C2101231B04984201D3000C6E
:1005400010391B0A984201D3000A08391B09984246
:1005500001D30009043902A2105C40187047C0465C
:10056000040302020101010100000000000000007C
:10057000002B11D1002A0FD1002900D1002802D070
:100580000021C943080007B4024802A140180290A4
:1005900003BDC04685FFFFFF03B4684601B502985E
:1005A00000F034F8019B9E4602B00CBC7047C04678
:1005B000F0B5CE469946030C9C46130447461B0CE7
:1005C0001D000E0061460404240C80B50700100CC9
:1005D0004B436543414360432C0CC01824188C46A0
:1005E000A34203D980235B029846C4444946794319
:1005F0005643230C2D042D0C8919634424046019DF
:10060000C918C0BCB946B046F0BDC046F0B55746A3
:100610004E464546DE46E0B504000D00924699463A
:1006200083B08B4230D82DD04946504600F0BAF8FE
:1006300029000600200000F0B5F8331A9846203B48
:1006400034D49B4653465A46934042461F00534675
:1006500093401E00AF423BD8AF4200D179E05B46E9
:10066000A41BBD41002B00DA76E00022002300929B
:10067000019301235A46934001930123424693403C
:10068000009329E08242CFD90022002300920193F7
:100690000C9B002B01D01C605D600098019903B099
:1006A000F0BCBB46B246A946A046F0BD42469B46BA
:1006B00020239B1A5246DA40414613004A468A409C
:1006C000170042461F43534693401E00AF42C3D912
:1006D00000220023009201934346002BD8D0FB0751
:1006E00072081A4346467B080EE0AB4201D1A24293
:1006F0000CD8A41A9D41012024196D410021013E0E
:1007000024184D41002E06D0AB42EED9013E2419EB
:100710006D41002EF8D1009801995B46001969419E
:10072000002B24DB2B005A464446D3402A00E240EB
:100730001C005B461500002B2ADB26009E40330080
:1007400026004746BE403200801A99410090019130
:100750009EE7A342BCD882E74246202300219B1A91
:100760000022009101920122DA40019285E742467F
:1007700020239B1A2A0046469A402300F340444611
:1007800013432A00E2401C005B461500002BD4DA1C
:1007900042462F002023260097409B1ADE403B0054
:1007A0003343CDE710B5002903D1FFF7C3FE203056
:1007B00002E00800FFF7BEFE10BDC04680B582B063
:1007C00000AF0200FB1D1A70FB1D1B787F2B09D8A0
:1007D000FB1D1B781A001F231A40044B0121914076
:1007E0000A001A60C046BD4602B080BD00E100E0CC
:1007F00090B583B000AF02003960FB1D1A70FB1D7D
:100800001B787F2B28D82F4AFB1D1B785BB29B08D7
:10081000C0339B009B58FA1D1278110003220A4036
:10082000D200FF2191400A00D2431A4011003B68D8
:100830009B01FF221A40FB1D1B7818000323034075
:10084000DB009A401F48FB1D1B785BB29B080A43E4
:10085000C0339B001A5031E01B4AFB1D1B78190066
:100860000F230B40083B9B0806339B00D31804332F
:100870001B68FA1D1278110003220A40D200FF21E2
:1008800091400A00D2431A4011003B689B01FF22AD
:100890001A40FB1D1B78180003230340DB009A401D
:1008A0000948FB1D1B781C000F232340083B9B08B5
:1008B0000A4306339B00C31804331A60C046BD4682
:1008C00003B090BD00E100E000ED00E080B586B02F
:1008D00000AF7860EFF31083BB60BB687B610123DE
:1008E000FB60FB6883F31088C0467B681B6820228E
:1008F0001A437B681A607B693B613B6983F310880C
:10090000C046C046BD4606B080BD80B586B000AFCB
:100910007860002002F02FF908217B18E1225202B2
:100920001A607B1800225A607B1800221A817B18FB
:1009300000225A817B1800229A817B18190000201E
:1009400004F01AF800F014F802F00AFC031E01D0BB
:1009500000F0EEFA02F074F902F088FA00F032FFCB
:10096000002002F012F900231800BD4606B080BD39
:1009700080B500AF0A4B1800FFF7A8FF012108203F
:10098000FFF736FF0820FFF719FF064B1B68986832
:100990000023022200210CF0E5FFC046BD4680BDC9
:1009A00000400041BC08002080B582B000AF7860F4
:1009B0000A00BB1C1A80154B1B88FF2B21D87B68B3
:1009C0001B780D2B12D1124A124B110018000CF09B
:1009D00059FF00F021F80D4B00221A8080235A00A5
:1009E0000B4B002118000DF06DF90AE0074B1B8836
:1009F0005A1C91B2054A11801A007B681978044B81
:100A00009954C046BD4602B080BDC0469402002045
:100A100094010020ECE7041080B500AFC046BD464D
:100A200080BD80B500AF01235B42180008F0CEFC0A
:100A3000C046BD4680BD80B500AFC046BD4680BD46
:100A400080B500AFC046BD4680BD000080B582B015
:100A500000AF7860084B1A6A7B68D943064B0A409E
:100A60001A62054B5A6A7B68D943034B0A405A62A3
:100A7000C046BD4602B080BD0000504880B582B07F
:100A800000AF7860084B9A6A7B68D943064B0A40EE
:100A90009A62054BDA6A7B68D943034B0A40DA62F3
:100AA000C046BD4602B080BD0000504880B582B04F
:100AB00000AF78607B681B691800BD4602B080BD3E
:100AC00080B584B000AF7860074B196D064B7A682B
:100AD0000A431A65044B1B6D7A681340FB60FB6880
:100AE000C046BD4604B080BD0000404880B584B01B
:100AF00000AF7860074B196E064B7A680A431A6696
:100B0000044B1B6E7A681340FB60FB68C046BD4611
:100B100004B080BD0000404880B582B000AF78606E
:100B2000064B1B6E7A6813407A689A4201D1012302
:100B300000E000231800BD4602B080BD0000404820
:100B400080B582B000AF7860044B196C034B7A68B3
:100B50000A431A64C046BD4602B080BD000040484A
:100B600080B582B000AF7860054B1A6C7B68D943C2
:100B7000034B0A401A64C046BD4602B080BDC04661
:100B80000000404880B500AF04F05EF900F02EF898
:100B900000F063F800F070F900F090F800F0ACF8A5
:100BA00000F078F800F01AF900F0DAF80020FFF70A
:100BB000ACFE0C4B1A000021402008F007FD02217A
:100BC000402008F027FD084B01220121180004F005
:100BD000A2FD054B01224021180004F09CFDFFF707
:100BE00020FFFCE7190F04100000104890B589B0F1
:100BF00000AF08243B19180018231A0000210DF03B
:100C000061F83B00180008231A0000210DF05AF883
:100C10003B1903221A603B19802252025A603B1989
:100C20001022DA603B19180007F078F9031E01D092
:100C300000F07EF93B0000221A603B0020225A603F
:100C40003B000021180007F0B3FA031E01D000F0AA
:100C50006FF9C046BD4609B090BD80B586B000AF03
:100C60003B00180018231A0000210DF02BF83B0060
:100C700002221A603B00802252015A613B00180098
:100C800007F02CFC031E01D000F052F9C046BD460F
:100C900006B080BD80B500AF064B074A1A60054B11
:100CA000180004F055FD031E01D000F041F9C046C4
:100CB000BD4680BD980200200000304880B582B05B
:100CC00000AF00237B600120FFF726FF031E08D141
:100CD0000120FFF735FF0120FFF742FF0120FFF75A
:100CE00005FFC023DB057B603B1D180005F026F8DF
:100CF000C046BD4602B080BD80B582B000AF3B00AB
:100D0000180008231A0000210CF0DCFF0120FFF777
:100D100003FF031E08D10120FFF712FF0120FFF798
:100D20001FFF0120FFF7E2FEC0460C4B1800FFF743
:100D3000BDFE03000F2BF8D93B00A02252001A8001
:100D40003B0000229A703B0000225A603B001800D2
:100D500005F0BAFCC046BD4602B080BD0018006078
:100D600080B500AF1B4B1C4A1A601A4B82225200FE
:100D70005A60184B00229A60164BC0229200DA602B
:100D8000144B00221A61134B00225A61114B80222E
:100D9000D2029A610F4B0022DA610E4B00221A62D6
:100DA0000C4B00225A620B4B00229A62094B07221D
:100DB000DA62084B00221A63064B08225A63054B7D
:100DC000180007F063FC031E01D000F0B1F8C04624
:100DD000BD4680BDA40200200070004180B500AF78
:100DE000234B244A1A60224BE12252025A60204BC4
:100DF00000229A601E4B0022DA601D4B00221A610D
:100E00001B4B0C225A611A4B00229A61184B00228C
:100E1000DA61174B00221A62154B00225A62144BFA
:100E200000229A62124B180007F0E8FC031E01D062
:100E300000F07EF80E4B0021180008F0AFF9031EF9
:100E400001D000F075F80A4B0021180008F0E6F90F
:100E5000031E01D000F06CF8054B180008F064F98F
:100E6000031E01D000F064F8C046BD4680BDC046F8
:100E7000080300200040004180B586B000AF3B1D54
:100E8000180014231A0000210CF01CFF0820FFF7A3
:100E900017FE0420FFF714FE9023DB05002201213A
:100EA000180004F038FC1B4B00224021180004F00D
:100EB00032FC3B1D01221A603B1D01225A603B1D82
:100EC00000229A603B1D0022DA603A1D9023DB0568
:100ED0001100180004F076FA3B1D40221A603B1DF9
:100EE00001225A603B1D00229A603B1D0022DA60FD
:100EF0003B1D084A1900100004F064FA0120FFF7B6
:100F0000A5FD01F04CFE4020FFF7B8FDC046BD46F0
:100F100006B080BD0000104880B500AF9023DB050F
:100F200001220121180004F0F6FBC046BD4680BD39
:100F300080B500AF72B6C046FEE7000080B582B053
:100F400000AF7860084B1A6A7B68D943064B0A40A9
:100F50001A62054B5A6A7B68D943034B0A405A62AE
:100F6000C046BD4602B080BD0000504880B582B08A
:100F700000AF7860084B9A6A7B68D943064B0A40F9
:100F80009A62054BDA6A7B68D943034B0A40DA62FE
:100F9000C046BD4602B080BD0000504880B584B058
:100FA00000AF7860074B196D064B7A680A431A65E3
:100FB000044B1B6D7A681340FB60FB68C046BD465E
:100FC00004B080BD0000404880B584B000AF7860B8
:100FD000074B596D064B7A680A435A65044B5B6DA3
:100FE0007A681340FB60FB68C046BD4604B080BD14
:100FF0000000404880B584B000AF7860074B996D21
:10100000064B7A680A439A65044B9B6D7A681340D5
:10101000FB60FB68C046BD4604B080BD0000404890
:1010200080B584B000AF7860074B196E064B7A68C4
:101030000A431A66044B1B6E7A681340FB60FB6818
:10104000C046BD4604B080BD0000404880B582B0B7
:1010500000AF7860064B1B6E7A6813407A689A423C
:1010600001D1012300E000231800BD4602B080BD7D
:101070000000404880B582B000AF7860044B196C26
:10108000034B7A680A431A64C046BD4602B080BD6D
:101090000000404880B582B000AF7860054B1A6C04
:1010A0007B68D943034B0A401A64C046BD4602B070
:1010B00080BDC0460000404880B500AF00F020F978
:1010C00080235B001800FFF77FFFC046BD4680BD50
:1010D00080B582B000AF78607B681B68094A934294
:1010E0000CD180235B021800FFF758FF002201217A
:1010F0000D2003F0DBFF0D2003F0EDFFC046BD46E1
:1011000002B080BD0000304890B589B000AF786073
:1011100008243B19180018231A0000210CF0D2FDF6
:101120007B681A68C023DB059A422DD13B19012246
:101130001A603B1904221A613B19180007F0CEF916
:10114000031E01D0FFF7F4FE0120FFF77FFF031E0F
:1011500008D10120FFF78EFF0120FFF79BFF012040
:10116000FFF75EFF01F01BFD00220021122003F0BB
:101170009DFF122003F0AFFF00220021192003F091
:1011800095FF192003F0A7FFC046BD4609B090BDEA
:1011900090B589B000AF78600C243B191800142377
:1011A0001A0000210CF08EFD7B681B68234A9342D5
:1011B0003FD18023DB011800FFF71CFF0820FFF759
:1011C000EDFE0420FFF7EAFE3B1908221A603B19E6
:1011D00002225A603B1900229A603B190022DA6011
:1011E0003B1904221A613B19154A1900100004F03A
:1011F000E9F821007B18B02212011A607B18022244
:101200005A607B1800229A607B180022DA607B18F3
:1012100003221A617A189023DB051100180004F0EC
:10122000D1F80820FFF7A2FEB0231B011800FFF73A
:1012300085FEC046BD4609B090BDC0460070004165
:101240000000104890B589B000AF78600C243B19BD
:10125000180014231A0000210CF034FD7B681B6871
:10126000254A934244D18023DB001800FFF7C2FED9
:101270000820FFF793FE0420FFF790FE3B190122A0
:101280001A603B1902225A603B1900229A603B19EE
:101290000022DA603B1900221A613B19174A190033
:1012A000100004F08FF821007B1802221A607B18CE
:1012B00002225A607B1800229A607B180022DA60B2
:1012C0007B1802221A617A189023DB05110018009E
:1012D00004F078F80120FFF749FE0220FFF72EFE08
:1012E00000220121082003F0E1FE082003F0F3FEB4
:1012F000C046BD4609B090BD004000410000104806
:1013000080B500AF0F21002004F0FEFAF0231B018E
:101310001900002004F032FB064B1900012004F0F4
:101320002DFB054B1900012004F0EEFAC046BD4626
:1013300080BDC046C930000036C0000080B582B014
:1013400000AF78607B68DB6920221340202B01D13D
:10135000012300E000231800BD4602B080BD80B527
:1013600082B000AF78607B685B6ADBB21800BD4674
:1013700002B080BD80B500AFC046BD4680BD80B51F
:1013800000AFFEE780B500AFC046BD4680BD80B56A
:1013900000AFC046BD4680BD80B500AF03F0B4FDD0
:1013A000C046BD4680BD000080B582B000AF0C4B8A
:1013B0001800FFF7C3FF0300012B0CD1084B1800E6
:1013C000FFF7CDFF03001A00FB1D1A70FB1D012162
:1013D0001800FFF7E9FAC046BD4602B080BDC0461E
:1013E0000040004180B500AF034B180004F00CFA38
:1013F000C046BD4680BDC0469802002080B500AF03
:1014000006F096FBC046BD4680BD80B500AF06F035
:1014100098FBC046BD4680BD80B500AF04F0D6FF46
:10142000C046BD4680BD80B500AF04F0F0FFC046A9
:10143000BD4680BD80B586B000AFF860B9607A6007
:1014400000237B610AE000E000BF0100BB685A1C7A
:10145000BA60CAB21A707B6901337B617A697B68B2
:101460009A42F0DB7B681800BD4606B080BD80B5AF
:1014700086B000AFF860B9607A6000237B6109E054
:10148000BB685A1CBA601B78180003F0B5FA7B6978
:1014900001337B617A697B689A42F1DB7B681800D3
:1014A000BD4606B080BD80B582B000AF7860012334
:1014B0005B421800BD4602B080BD80B582B000AF6F
:1014C000786039603B68802292015A6000231800DE
:1014D000BD4602B080BD80B582B000AF7860012308
:1014E0001800BD4602B080BD80B584B000AFF86082
:1014F000B9607A6000231800BD4604B080BD0000CA
:1015000080B586B000AF7860144A154BD31A7B6162
:101510007B693B61134B1B68002B02D1114B124AB4
:101520001A60104B1A687B68D3183A699A4207D23E
:101530000CF01EFC03000C221A6001235B4209E040
:10154000084B1B68FB60074B1A687B68D218054B79
:101550001A60FB681800BD4606B080BD000001207F
:10156000000C00009C030020BC20002080B500AFD0
:1015700000F018FA03F032F80300013301D1FFF74D
:10158000D7FCC046BD4680BDF0B597B004AF472339
:10159000FB1800221A703C23FB1800221A6000225C
:1015A0009A803B23FB1806221A703A1D514B1000FB
:1015B000190034231A000CF0E4FB46257C193B1D6E
:1015C000180008F0F3FA030023707B191B78002B36
:1015D00008D07B191A78484B110018000CF052F90A
:1015E000FFF7A6FC46257C191821002008F070F9A9
:1015F000030023702A00BB181B78002B07D0BB18F0
:101600001A783E4B110018000CF03CF903E03C4BFB
:1016100018000CF09DF946257C194223FB1819008F
:10162000012003F016F8030023707B191B78002BB0
:1016300007D07B191A78334B110018000CF022F9EF
:1016400003E0314B18000CF083F945217B18002290
:101650001A707B187A18127801210A431A704625ED
:101660007C194723FB181B780121180008F04AF861
:10167000030023707B191B78002B07D07B191A7885
:10168000224B110018000CF0FDF803E0204B18006D
:101690000CF05EF94623FC183C257A193B23FB1815
:1016A0001900802008F010F90300237028003B186F
:1016B0005B791C003B181B791D003B18DB781E0072
:1016C0003B189B781A003B185B7819003B181B7875
:1016D000104802930191009233002A0021000CF07F
:1016E000D1F80D4B18000CF033F9C046BD4613B0CD
:1016F000F0BDC046B0E90410FCE7041020E8041077
:1017000060E8041090E80410D0E8041000E9041028
:1017100034E9041054E9041098E9041080B500AFCE
:101720000121012007F076FFC046BD4680BD80B58F
:1017300000AF012001F01FFA08F054F9012001F078
:1017400024FAC046BD4680BD80B500AF05F0B4F8B0
:10175000C046BD4680BD80B500AF0021022007F025
:1017600059FFC046BD4680BD80B500AF02F0BCFE4B
:10177000C046BD4680BD80B500AF0121042007F002
:1017800049FFC046BD4680BD80B500AFFFF7E3FF0F
:10179000C046BD4680BD80B582B000AF78607B6832
:1017A00018000AF093FBFFF7D6FFFFF7E4FFC046EF
:1017B000BD4602B080BD80B500AFFFF7AFFFC046A9
:1017C000BD4680BD80B500AF0D4B1A000021012041
:1017D00007F0FCFE0B4B1A000021022007F0F6FE7A
:1017E000094B1A000021042007F0F0FEFFF7BEFEAF
:1017F000FFF7CAFE00F0CEF8C046BD4680BDC04629
:101800002F170410491704106917041080B582B00F
:1018100000AF7860C046BD4602B080BDB0B590B0A4
:101820000CAF0D23FB1800221A700A23FB18C822E4
:10183000D2001A800F23FB1800221A700EE00F202E
:101840003B181A783B181B780D334C49895C4C4A7D
:10185000D1543B181A783B1801321A700F23FB1829
:101860001B78092BEBD90E23FB1800221A700EE00F
:101870000E203B181A783B181B7817334149895CB6
:101880003F4AD1543B181A783B1801321A700E2384
:10189000FB181B78052BEBD90A217B181A887B18BB
:1018A0001B880D257C1900210A9100210991012135
:1018B0000891002107910121069100210591002145
:1018C00004910021039101210291072101910093CC
:1018D000130010220221002007F038FF03002370BC
:1018E0007B191B78002B09D07B191A78264B110025
:1018F00018000BF0C7FF7B191B783BE00D257C1906
:101900001F4B1F220321002007F055FF0300237007
:101910007B191B78002B09D07B191A781B4B1100FF
:1019200018000BF0AFFF7B191B7823E03B1D002252
:101930001A703B1D00225A803B1D00221A710D2592
:101940007C193B1D1A000121012007F038FF03001C
:1019500023707B191B78002B09D07B191A780C4B4C
:10196000110018000BF08EFF7B191B7802E00D238D
:10197000FB181B781800BD4604B0B0BD5C08002001
:101980007008002068080020E4E9041020EA041030
:1019900054EA041080B500AFFFF740FFC046BD46D3
:1019A00080BD000080B500AF02F00AFB074B1900B4
:1019B000002002F063FC064B1900012002F05EFCDF
:1019C000044B024A1A60C046BD4680BDA0030020F9
:1019D000B0030020C0030020F0B589B002AFB960A9
:1019E00011007B600F243B19021C1A700C23FB189A
:1019F0000A1C1A803B191B78022B03D11A4B1B4A75
:101A00001A6002E0184B1A4A1A60174B186817261A
:101A1000BC19BD680C23FB181B889C460F23FB18C0
:101A200019787B680193282308229B18DB191B88EF
:101A300000932B00624602F0C3FC03002370BB1925
:101A40001B78002B01D1002309E01723FB181B781A
:101A5000022B02D101235B4201E002235B4218000A
:101A6000BD4607B0F0BDC046C0030020B003002053
:101A7000A0030020B0B586B002AF0400080011003A
:101A80003B60FB1D221C1A70BB1D021C1A703B1D03
:101A90000A1C1A80BB1D1B78022B07D12E4B2F4A24
:101AA0001A600E23FB1801221A7006E02A4B2C4AFA
:101AB0001A600E23FB1800221A70FB1D1B78022BE4
:101AC00012D1254B18680F23FC182023FB181D8802
:101AD0003A683B1D19880C23FB1800932B0002F079
:101AE0003BFC0300237021E0FB1D1B78002B08D179
:101AF000194B1A680E23FB181B781100180002F00E
:101B0000BDFB154B18680F23FC183D683B1D1A8858
:101B1000BB1D19780C23FB1801932023FB181B888D
:101B200000932B0002F0DEFB030023700F23FB1851
:101B30001B78002B01D1002309E00F23FB181B7831
:101B4000042B02D103235B4201E002235B42180015
:101B5000BD4604B0B0BDC046C0030020B0030020A5
:101B6000A003002080B584B000AFF860B9607A604F
:101B70007A68B968FB681800FEF7C4FAC046BD462B
:101B800004B080BD80B584B000AFF860B9607A6001
:101B90007A68B968FB6818000CF094F8C046BD4636
:101BA00004B080BD90B589B000AFF860B9607A60CC
:101BB00010243B19180002F04BFE21007B181A7804
:101BC000FB681A707B185A78BB681A707B189A7871
:101BD0007B681A70C046BD4609B090BD80B584B020
:101BE00000AFF860B9607A607A68B968FB6818007D
:101BF00001F03AF8C046BD4604B080BD80B582B061
:101C000000AF78607B68180001F0DEFAC046BD4680
:101C100002B080BD80B582B000AF78607B681800EC
:101C200001F0ECFAC046BD4602B080BD80B500AF01
:101C300002F076FD03001800BD4680BD80B500AF00
:101C400002F074FD03001800BD4680BD80B582B06F
:101C500000AF0200FB1D1A70FB1D1B78180002F07C
:101C60006BFDC046BD4602B080BD80B500AF05F03B
:101C70009DF802000B0010001900BD4680BD80B524
:101C800084B000AFF8603A607B603A687B68F968BE
:101C9000080005F09DF803001800BD4604B080BDA3
:101CA00080B582B000AF78607B68180005F0AAF8B4
:101CB000C046BD4602B080BD80B582B000AF78603E
:101CC00008001100FB1C021C1A70BB1C0A1C1A70B5
:101CD000BB1C1A78FB1C19787B68180004F050FFB5
:101CE0000300DBB21800BD4602B080BD80B500AF76
:101CF00004F096FF0300DBB21800BD4680BD80B53E
:101D000082B000AF78607B68180004F025FF020005
:101D10000B0010001900BD4602B080BD80B500AFB9
:101D200004F0F2FFC046BD4680BD000080B582B021
:101D300000AF7860074B5B687F22934319007B6894
:101D40007F221A40034B0A435A60C046BD4602B088
:101D500080BDC046C000002080B500AF044B5A686B
:101D6000034B80210A435A60C046BD4680BDC04631
:101D7000C000002080B500AF044B5A68034B80219F
:101D80008A435A60C046BD4680BDC046C0000020A0
:101D900080B582B000AF7860074B1B69074A1340DB
:101DA00019007B681B02064A1A40034B0A431A615A
:101DB000C046BD4602B080BDC0000020FF0000F05C
:101DC00000FFFF0F80B582B000AF0200FB1D1A704C
:101DD000FB1D1B785C225343084A944663441A68EF
:101DE000FB1D1B785C214B4304498C466344402116
:101DF0000A431A60C046BD4602B080BDDC00002028
:101E000080B582B000AF0200FB1D1A70FB1D1B786D
:101E10005C225343084A944663441A68FB1D1B78AE
:101E20005C214B4304498C46634440218A431A6039
:101E3000C046BD4602B080BDDC00002080B582B047
:101E400000AF0200FB1D1A70FB1D1B785C22534380
:101E5000084A944663441A68FB1D1B785C214B4377
:101E600004498C46634480210A431A60C046BD463B
:101E700002B080BDDC00002080B582B000AF02005F
:101E8000FB1D1A70FB1D1B785C225343084A9446C5
:101E900063441A68FB1D1B785C214B4304498C4644
:101EA000634480218A431A60C046BD4602B080BDAB
:101EB000DC00002080B582B000AF02003960FB1D5D
:101EC0001A70FB1D1B785C2253430C4A94466344F2
:101ED0001B680B4A134019003B681A02FC239B0144
:101EE0001A40FB1D1B785C2043430448844663442E
:101EF0000A431A60C046BD4602B080BDDC00002027
:101F0000FFC0FFFF80B582B000AF02003960FB1D4B
:101F10001A70FB1D1B785C2253430C4A94466344A1
:101F20001B680B4A134019003B681A06E023DB04C8
:101F30001A40FB1D1B785C204343044884466344DD
:101F40000A431A60C046BD4602B080BDDC000020D6
:101F5000FFFFFFF880B582B000AF02003960FB1DC3
:101F60001A70FB1D1B785C2253430C4A9446634451
:101F70001B680B4A134019003B681A07E023DB0576
:101F80001A40FB1D1B785C2043430448844663448D
:101F90000A431A60C046BD4602B080BDDC00002086
:101FA000FFFFFF8F80B582B000AF02003960FB1DDC
:101FB0001A70FB1D1B785C225343084A9446634405
:101FC0005B68FB1D1B785C225343044A94466344C0
:101FD0003A685A60C046BD4602B080BDDC000020B1
:101FE00080B582B000AF02003960FB1D1A70FB1D86
:101FF0001B785C225343084A944663449B68FB1D4C
:102000001B785C225343044A944663443A689A60BE
:10201000C046BD4602B080BDDC00002080B582B065
:1020200000AF02003960FB1D1A70FB1D1B785C229B
:102030005343084A944663445B6AFB1D1B785C2249
:102040005343044A944663443A685A62C046BD46C4
:1020500002B080BDDC00002080B582B000AF02007D
:102060003960FB1D1A70FB1D1B785C2253430B4A21
:10207000944663449B6A1B0E19063B681B021A0AAE
:10208000FB1D1B785C2043430448844663440A4399
:102090009A62C046BD4602B080BDC046DC0000204A
:1020A00080B582B000AF02003960FB1D1A70FB1DC5
:1020B0001B785C2253430A4A944663449B6A1B0282
:1020C000190A3B681A06FB1D1B785C204343044831
:1020D000844663440A439A62C046BD4602B080BD4E
:1020E000DC00002080B582B000AF0200FB1D1A703A
:1020F000FB1D1B785C225343084A94466344DA6A0A
:10210000FB1D1B785C214B4304498C4663448021B2
:102110000A43DA62C046BD4602B080BDDC00002042
:1021200080B582B000AF0200FB1D1A70FB1D1B784A
:102130005C225343084A94466344DA6AFB1D1B78C9
:102140005C214B4304498C46634480218A43DA6214
:10215000C046BD4602B080BDDC00002080B582B024
:1021600000AF02003960FB1D1A70FB1D1B785C225A
:1021700053430B4A94466344DB6A1F22934319007E
:102180003B681F221A40FB1D1B785C204343044818
:10219000844663440A43DA62C046BD4602B080BD4D
:1021A000DC00002080B582B000AF02003960FB1D6A
:1021B0001A70FB1D1B785C2253430C4A94466344FF
:1021C000DB6A0B4A134019003B681A02FC239B018F
:1021D0001A40FB1D1B785C2043430448844663443B
:1021E0000A43DA62C046BD4602B080BDDC00002072
:1021F000FFC0FFFF80B582B000AF786039607B68B8
:102200001B687B683A681A60C046BD4602B080BD54
:1022100080B582B000AF786039607B685B6801226E
:1022200093431A003B6801210B401A437B685A60B4
:10223000C046BD4602B080BD80B582B000AF7860B8
:1022400039607B685B68042293431A003B689B00FB
:1022500004210B401A437B685A60C046BD4602B059
:1022600080BD80B582B000AF786039607B685B6804
:10227000202293431A003B685B0120210B401A4344
:102280007B685A60C046BD4602B080BD80B582B052
:1022900000AF78607B685B68802293431A007B689C
:1022A0005A60C046BD4602B080BD000080B582B015
:1022B00000AF786039607B685B68074A1A403B680A
:1022C000190280235B000B401A437B685A60C046AA
:1022D000BD4602B080BDC046FFFEFFFF80B582B0A4
:1022E00000AF786039607B685B68074A1A403B68DA
:1022F000590280239B000B401A437B685A60C046FA
:10230000BD4602B080BDC046FFFDFFFF80B582B074
:1023100000AF786039607B685B68074A1A403B68A9
:1023200099028023DB000B401A437B685A60C04649
:10233000BD4602B080BDC046FFFBFFFF80B582B046
:1023400000AF786039607B689B687B683A689A6008
:10235000C046BD4602B080BD80B582B000AF786097
:1023600039607B68DB681B0D1A053B681B031B0B80
:102370001A437B68DA60C046BD4602B080BD80B5B6
:1023800082B000AF78607B68DB68802252031A431A
:102390007B68DA60C046BD4602B080BD80B582B0C1
:1023A00000AF786039607B68DB68074A1A403B6899
:1023B00099058023DB030B401A437B68DA60C04633
:1023C000BD4602B080BDC046FFFFBFFF80B582B0F2
:1023D00000AF786039607B68DB68074A1A403B6869
:1023E000D90580231B040B401A437B68DA60C04682
:1023F000BD4602B080BDC046FFFF7FFF80B582B002
:1024000000AF78607B68DB68802292041A437B68A7
:10241000DA60C046BD4602B080BD80B582B000AF74
:1024200078607B68DB68802212061A437B68DA607A
:10243000C046BD4602B080BD80B582B000AF7860B6
:10244000C023DB055B68074A134019007B68064A16
:102450001A40C023DB050A435A60C046BD4602B09D
:1024600080BDC0464F000200B0FFFDFF80B582B0C6
:1024700000AF7860C023DB059B69082293431900F5
:102480007B68DB0008221A40C023DB050A439A61FF
:10249000C046BD4602B080BD80B588B000AF786050
:1024A00008001100FB1C021C1A70BB1C0A1C1A70CD
:1024B0007B687B61FB1C1B78012B05D10623BB606D
:1024C000BB680233FB6115E0FB1C1B78002B05D1B8
:1024D0000423FB60FB680233FB610BE0FB1C1B78F1
:1024E000022B05D102233B613B690433FB6101E010
:1024F0000023FB61FB1C1B78012B03D0FB1C1B780A
:10250000022B09D1BB1C1B78012B02D19B23BB6181
:1025100013E03D23BB6110E0FB1C1B78002B03D0B4
:10252000FB1C1B78032B08D1BB1C1B78012B02D191
:102530009923BB6101E03B23BB61BA69FB69D318F6
:102540007A69D31A7B617B691800BD4608B080BDEB
:1025500080B582B000AF78607B681800FFF76CFF31
:10256000C046BD4602B080BD80B500AF0120FFF778
:102570007DFFC046BD4680BD80B500AFFFF7FAFBCA
:10258000C046BD4680BD80B500AFFFF7E5FBC04645
:10259000BD4680BD80B582B000AF0200FB1D1A7041
:1025A000FB1D1B781800FFF7C1FBC046BD4602B0FB
:1025B00080BD000080B582B000AF78607B68034AC0
:1025C00013401800BD4602B080BDC04630DFC900D0
:1025D00080B582B000AF78607A688023DB03134057
:1025E0001800BD4602B080BD80B582B000AF7860F3
:1025F00000231800BD4602B080BD80B582B000AF98
:1026000078607A6880239B0413401800BD4602B0AE
:1026100080BD80B582B000AF78607A6880235B02AD
:1026200013401800BD4602B080BD80B582B000AF37
:1026300078607A6880239B0313401800BD4602B07F
:1026400080BD80B582B000AF78607A6880239B003F
:1026500013401800BD4602B080BD80B582B000AF07
:1026600078607A6880231B0113401800BD4602B0D1
:1026700080BD80B582B000AF78607B68DB0FDB0780
:102680001800BD4602B080BD80B582B000AF786052
:102690007B68402213401800BD4602B080BD80B563
:1026A00082B000AF78607B681800FFF7EFFDC0468E
:1026B000BD4602B080BD80B582B000AF78607B6857
:1026C00000211800FFF7A4FDC046BD4602B080BD42
:1026D00080B582B000AF78607B68102200211800BE
:1026E0000BF0F0FAC046BD4602B080BD80B582B0A6
:1026F00000AF78607B6801211800FFF7B2FDC0468B
:10270000BD4602B080BD80B582B000AF7860396050
:102710003A687B6811001800FFF710FEC046BD46FE
:1027200002B080BD80B582B000AF78607B681800D1
:10273000FFF764FEC046BD4602B080BD80B582B0E2
:1027400000AF78607B681800FFF767FEC046BD46A3
:1027500002B080BD80B582B000AF78607B68012197
:102760001800FFF769FDC046BD4602B080BD80B5C8
:1027700082B000AF786039603A687B681100180059
:10278000FFF738FDC046BD4602B080BD80B582B0BF
:1027900000AF78607B6800211800FFF787FDC04616
:1027A000BD4602B080BD80B582B000AF78600A003F
:1027B000FB1C1A70C046BD4602B080BD80B582B019
:1027C00000AF78607B6801211800FFF76FFDC046FD
:1027D000BD4602B080BD80B582B000AF78607B6836
:1027E00001211800FFF714FDC046BD4602B080BDB0
:1027F00080B582B000AF78607B6801211800FFF7D8
:102800006DFDC046BD4602B080BD80B582B000AF50
:10281000786039603A687B6811001800FFF79CFD0A
:10282000C046BD4602B080BD80B582B000AF7860C2
:102830007B681800FFF7A3FDC046BD4602B080BD0F
:1028400080B582B000AF78607B6801211800FFF787
:10285000BDFDC046BD4602B080BD80B582B000AFB0
:1028600078607B6801211800FFF798FDC046BD46DF
:1028700002B080BD80B582B000AF78607B68012176
:102880001800FFF743FD7B6801211800FFF726FDC4
:10289000C046BD4602B080BD80B582B000AF786052
:1028A00039603B681B031B0B1800FFF771FAC04629
:1028B000BD4602B080BD80B582B000AF0200396075
:1028C000FB1D1A703B68002B05D0FB1D1B78180000
:1028D000FFF778FA04E0FB1D1B781800FFF790FA69
:1028E000C046BD4602B080BD80B582B000AF0200D8
:1028F000FB1D1A70FB1D1B785C225343084A94464B
:1029000063445C22002118000BF0DCF9FB1D1B78EE
:1029100001211800FFF7CFFFC046BD4602B080BDC1
:10292000DC00002080B582B000AF02003960FB1DE2
:102930001A703A68FB1D1B7811001800FFF76EFB38
:10294000C046BD4602B080BD80B582B000AF020077
:102950003960FB1D1A703A68FB1D1B7811001800C6
:10296000FFF77AFBC046BD4602B080BD80B582B09D
:1029700000AF0200FB1D1A70BB1D0A1C1A70BB1DA4
:102980001A78FB1D1B7811001800FFF789FBC04661
:10299000BD4602B080BD80B582B000AF0200FB1D15
:1029A0001A70BB1D0A1C1A70BB1D1A78FB1D1B7800
:1029B00011001800FFF7F6FBC046BD4602B080BD0F
:1029C00080B582B000AF0200FB1D1A70BB1D0A1C4F
:1029D0001A70BB1D1A78FB1D1B7811001800FFF739
:1029E00069FAC046BD4602B080BD80B582B000AF76
:1029F0000200FB1D1A70FB1D1B781800FFF73CFA44
:102A0000C046BD4602B080BD80B582B000AF0200B6
:102A10003960FB1D1A703A68FB1D1B781100180005
:102A2000FFF7DEFAC046BD4602B080BD80B582B079
:102A300000AF0200FB1D1A70BB1D0A1C1A70BB1DE3
:102A40001A78FB1D1B7811001800FFF783FAC046A7
:102A5000BD4602B080BD80B582B000AF0200FB1D54
:102A60001A70FB1D1B781800FFF7E8F9C046BD4639
:102A700002B080BD80B582B000AF02003960FB1D9E
:102A80001A703A68FB1D1B7811001800FFF78AFACC
:102A9000C046BD4602B080BD80B582B000AF020026
:102AA000FB1D1A70BB1D0A1C1A70BB1D1A78FB1D7A
:102AB0001B7811001800FFF725FAC046BD4602B08A
:102AC00080BD80B582B000AF0200FB1D1A70BB1D37
:102AD0000A1C1A70BB1D1B78202B08D1FB1D1B780C
:102AE0001800FFF7FFFABB1D1F221A7004E0FB1D40
:102AF0001B781800FFF714FBBB1D1A78FB1D1B7811
:102B000011001800FFF72AFBC046BD4602B080BD89
:102B10001048854602F082F8002103E00E4B5B5816
:102B2000435004310D480E4B42189A42F6D30D4AD9
:102B300002E00023136004320B4B9A42F9D30B4A94
:102B400002E0002313600432094B9A42F9D3FEF7E6
:102B500019F8FEE7000001209CEC04105C0800203E
:102B60000C090020940100205C080020C000002017
:102B700094010020FEE780B582B000AF0200FB1D8B
:102B80001A70C046BD4602B080BD80B582B000AFAD
:102B90000200FB1D1A70C046BD4602B080BD80B564
:102BA00000AFC046BD4680BD80B584B000AF786040
:102BB000074B196E064B7A680A431A66044B1B6E64
:102BC0007A681340FB60FB68C046BD4604B080BD18
:102BD0000000404880B582B000AF7860064B1B6EA5
:102BE0007A6813407A689A4201D1012300E00023F9
:102BF0001800BD4602B080BD0000404880B582B0DC
:102C000000AF7860044B196C034B7A680A431A646E
:102C1000C046BD4602B080BD0000404880B582B0CD
:102C200000AF7860054B1A6C7B68D943034B0A40B0
:102C30001A64C046BD4602B080BDC0460000404890
:102C400080B500AF0120FFF7C5FF031E08D10120AA
:102C5000FFF7D4FF0120FFF7E1FF0120FFF7A4FFFA
:102C600000231800BD4680BD90B587B000AFF86066
:102C7000B9607A60314B1B78DBB20133DAB22F4B8B
:102C80001A7017243B192D4A12781A70C023DB05DD
:102C9000BA6812689A62BB681A1DC023DB05126805
:102CA000DA62BB6808331A00C023DB0512681A63B6
:102CB000BB680C331A00C023DB0512685A63C023BB
:102CC000DB05FA6812689A63FB681A1DC023DB05EE
:102CD0001268DA63FB6808331A00C023DB05126848
:102CE0001A64FB680C331A00C023DB0512685A64AF
:102CF00000F026F8C023DB059A6C7B681A60C023BD
:102D0000DA057B680433D26C1A60C023DA057B686D
:102D10000833126D1A60C023DA057B680C33526DDC
:102D20001A60064B1B78DBB23A1912789A42A8D186
:102D300000231800BD4607B090BDC046C403002064
:102D400080B582B000AFFB1D64221A70C023DB0582
:102D5000180000F01CF8FB1D1B78DBB2013BDAB257
:102D6000FB1D1A70C023DB05180000F01EF8031EBF
:102D700005D0FB1D1B78DBB2002BECD100E0C04678
:102D8000FB1D1B78DBB21800BD4602B080BD80B5CC
:102D900082B000AF78607B689B6D01221A437B682C
:102DA0009A65C046BD4602B080BD80B582B000AF16
:102DB00078607B68DB6D01221340012B01D1012378
:102DC00000E000231800BD4602B080BD80B582B08F
:102DD00000AF78607B681B68802252031A437B68CF
:102DE0001A60C046BD4602B080BD80B582B000AF5B
:102DF00078607B681B68802212031A437B681A6024
:102E0000C046BD4602B080BD80B582B000AF7860DC
:102E10007B681B68802292021A437B681A60C04656
:102E2000BD4602B080BD000080B586B000AFF8603E
:102E3000B9607A60FB689B000B4A944663447B61EF
:102E40000AE07A69131D7B617B68191D796012683D
:102E50001A60BB68013BBB60BB68002BF1DCC0465D
:102E6000C046BD4606B080BD0004304880B500AF06
:102E700001F0B4FB074B1800FFF7A8FF054B180043
:102E8000FFF7B3FF034B1800FFF7BEFFC046BD4678
:102E900080BDC0460000304880B584B000AF786087
:102EA000144B00221A60144B00221A6001F0A2FB9E
:102EB000124B7A681A600023FB600CE0FB68103349
:102EC0001A000F4BF9688900C9580C4B9200D15079
:102ED000FB680133FB60FB68072BEFDD094B1B68C8
:102EE00006490122524210009847C046BD4604B030
:102EF00080BDC046280400202C040020C803002008
:102F0000300400205004002080B582B000AF2F4B69
:102F10001B68012B55D12E4B1B680E2B4DD89A00E8
:102F20002C4BD3181B689F46294B01221A6048E09E
:102F3000274B02221A6044E0254B03221A6040E02E
:102F400000237B600AE0244B7A689200D158234B1F
:102F50007A689200D1507B6801337B607B68072BD5
:102F6000F1DD1F4A1F4B1100180000F05AF8184BF2
:102F70000E221A60FFF7C8FF23E0144B00221A60EC
:102F8000134B00221A6001F035FB00233B600AE07E
:102F9000114B3A689200D158104B3A689200D150C8
:102FA0003B6801333B603B68072BF1DD0E4B1B6830
:102FB0000A4A11000020984703E0A020FFF76CFFA9
:102FC000FFE7C046BD4602B080BDC04628040020D1
:102FD0002C040020ACEA041030040020C8030020B8
:102FE00008040020E80300205004002080B582B0CF
:102FF00000AF7860FFF788FF01F026FBC046BD46B2
:1030000002B080BD80B582B000AF78607B689B68FD
:103010001800FFF741FF01F017FBC046BD4602B0A4
:1030200080BD80B582B000AF786039607B68002BCE
:1030300005D07B681A0008215E20FFF7F5FE3B688B
:10304000002B05D03B681A0008217420FFF7ECFE26
:10305000C046BD4602B080BD80B584B000AF786088
:10306000074B196D064B7A680A431A65044B1B6DB2
:103070007A681340FB60FB68C046BD4604B080BD63
:103080000000404880B582B000AF78607B681B6864
:10309000012293431A007B681A60C046BD4602B005
:1030A00080BD000080B582B000AF786039607B6879
:1030B0001B68054A1A403B681B021A437B681A606A
:1030C000C046BD4602B080BDFF0000FF80B582B0A3
:1030D00000AF78607B681B681B0A1B041B0C180080
:1030E000BD4602B080BD80B582B000AF78607B681D
:1030F0005B6801221340012B01D1012300E0002372
:103100001800BD4602B080BD80B582B000AF7860C7
:103110007B685B6804221340042B01D1012300E08B
:1031200000231800BD4602B080BD80B582B000AF5C
:1031300078607B685B6810221340102B01D101235B
:1031400000E000231800BD4602B080BD80B582B00B
:1031500000AF78607B689B681800BD4602B080BDF8
:1031600080B582B000AF8023DB021800FFF774FF48
:1031700000237B6005E07B68124A19001000FFF70E
:1031800091FF104B1800FFF7A1FF02007B689342EC
:10319000F1D10C4B1800FFF775FFC046094B180022
:1031A000FFF7A1FF031EF9D1064B1800FFF7ACFF94
:1031B000031E01D0012300E000231800BD4602B029
:1031C00080BDC0460000604880B582B000AF786026
:1031D000C046094B1800FFF7A8FF031EF9D0064BA5
:1031E0001800FFF7B3FF03009AB27B681A80002330
:1031F0001800BD4602B080BD0000604880B582B0B6
:1032000000AF7860C046094B1800FFF78EFF031E21
:10321000F9D0064B1800FFF799FF02007B681A608F
:1032200000231800BD4602B080BDC04600006048C3
:1032300080B584B000AF78607B681B68FB607B68FA
:1032400000221A817B6800225A817B6800229A81C1
:103250007B6800229A73FB68BB60BB681B78FF2BFE
:103260000CD17B685B689AB2FB689BB2D31A9BB2A5
:10327000043B9AB27B689A81002328E0BB681B78E4
:10328000FE2B06D17B681B8901339AB27B681A81B9
:103290000CE0BB681B78002B06D17B685B8901338F
:1032A0009AB27B685A8101E0032310E0BB685B8817
:1032B0000333032213431A00FB68D3180133FB6066
:1032C000FB685A1D7B685B689A42C4D300231800D0
:1032D000BD4604B080BD80B586B000AFF8607A60AE
:1032E0003B600B23FB180A1C1A7020203B181B881C
:1032F000002B0AD010217A183B181B8853807B18AA
:10330000FE221A707B187B6102E0FB685B687B61C0
:10331000FB685A68FB689B689A4203D27B691B78FA
:10332000FF2B01D104234BE0FB681B7B002B03D058
:10333000FB6800221A7319E0FB685B687A6952889F
:10334000033203210A439B185A1CFB685A60FB682E
:103350005B687B61FB685A68FB689B689A4203D292
:103360007B691B78FF2B01D1042329E07B691B7843
:10337000002B23D07B691B78FE2B01D003231FE099
:103380000B22BB181B78FF2B05D07B695B78BA1822
:1033900012789A42C8D1FB685B6804331A007B68D4
:1033A0001A607B695A883B681A807B6A002B03D0BD
:1033B0007B695A787B6A1A70002301E0C046B3E744
:1033C0001800BD4606B080BDF0B58BB002AFF86006
:1033D000080011007B600B23FB18021C1A700822E6
:1033E0001000BB180A1C1A80FB6B00221A801F26D3
:1033F000BC191622BD181822BA180B23FB1819780D
:10340000FB689C467B6C019338231B18DB191B88D7
:1034100000932B006046FFF75EFF03002370BB198B
:103420001B78002B02D0BB191B7827E01623FB1852
:103430001B880822BA1812889A4201D306231DE07D
:10344000BA6908243B191B88D118302308229B181D
:10345000DB191A881623FB181B8818003B191B88D8
:10346000C31A9A4200DD1A007B6818000AF089FC32
:103470001623FB181A88FB6B1A8000231800BD4620
:1034800009B0F0BD90B589B000AFF8607A600A204D
:103490003B180A1C1A807B68BB6101007B181B88E3
:1034A0009B089AB216203B1892001A807B181B8842
:1034B000D9B23B181B88DAB21523FB188A1A1A7086
:1034C0000023FB6113E0FB69BA69D1181023FB18D4
:1034D000042218000AF055FCFA69FB68D3183A690F
:1034E0001900002001F014FEFB690433FB6116246F
:1034F0003B191B88FA699A42E5DB01235B423B6179
:103500003B191B88BA69D1181523FB181A781023A8
:10351000FB1818000AF035FC3B191A88FB68D31811
:103520003A691900002001F0F3FDC046BD4609B01C
:1035300090BDF0B587B000AFF860080011007B6067
:103540000B257B19021C1A7008243B190A1C1A80CF
:103550001023FB187B613B191B88013B9BB21BB2FC
:10356000032213431BB29AB23B1901321A807B69C2
:10357000FE221A707B697A1912785A703A1920253E
:103580000826AB1908218C46BC44634412881B886A
:10359000D3189AB27B695A803A69FB6819000020F7
:1035A00001F0B6FDFB68181D7A683B191B881900ED
:1035B000FFF768FF3B191A88FB68D318181D7A6B50
:1035C000AB1908218C46BC4463441B881900FFF7E3
:1035D00059FF00231800BD4607B0F0BD90B587B075
:1035E00000AFF86008007A6019000A23FB18021C7B
:1035F0001A8008231800FB180A1C1A80BB6A0022D4
:103600001A8024221318DB191B88002B0BD01021E1
:103610007B181218D21912885A807B18FE221A7051
:103620007B187B6102E0FB685B687B61FB685A6822
:10363000FB689B689A4203D27B691B78FF2B01D100
:10364000042333E0FB681B7B002B03D17B691B78D1
:10365000FE2B01D0052329E07B695B880A22BA187A
:1036600012889A4201D3062320E0FB6800221A73D5
:103670000A243B191A88FB685B68D31804331800C6
:103680000823FB181A887B695B8819003B191B8883
:10369000CB1A9A4200DD1A007B68010018000AF07C
:1036A00070FB7B695A88BB6A1A8000231800BD46EC
:1036B00007B090BD80B588B000AF78600A00FB1CF1
:1036C0001A707B680D4A94466344DB0AFB61102143
:1036D0007B1800221A60FA697B185A60FB1C1A7862
:1036E0007B189A600C23FA187B181100180001F05F
:1036F000E9FDC046BD4608B080BDC0460000FCEFF5
:1037000080B586B000AFF860B9607A607B685B0511
:103710005B0D07D1FB687A68B96818000AF0C4FA33
:10372000031E26D07B68013B144A13430133DB0A96
:10373000DAB2FB6811001800FFF7BCFF00237B61C1
:1037400012E07A69FB68D1187B69002B00DA033339
:103750009B109B00BA68D3181B681A00002001F068
:10376000D7FC7B6904337B617B697A689A42E8D82D
:1037700000E0C046BD4606B080BDC046FF07000061
:1037800080B582B000AF78607B6801221A707B68D8
:1037900000225A807B6800229A80C046BD4602B053
:1037A00080BDF0B58DB004AFF860B9603B60BB1D63
:1037B0001A801E23FB1800221A80BB1D1A88BB68C2
:1037C000FF2118000AF07EFA1023FB18FE221A705F
:1037D000BA1D1E257B1912881B88D31A9AB21C2386
:1037E000FB18043A1A80BB6B1B78002B4ED07B1958
:1037F0001B880433BA68D118BB6B9B881B26BC1985
:10380000F8681022BA180132039202931622BB18EC
:1038100001931C23FB181B8800930B000022FF213F
:10382000FFF7D2FD030023701622BB181A88BB6B6A
:103830009A80BB191B78002B06D03B687A19128836
:103840001A80BB191B78A1E01623FB181A881021D7
:103850007B185A801E257B191B88BA68D3180C0068
:103860007918042218000AF08CFA3B195B8803339C
:103870009BB21BB2032213431BB29AB27B191B8863
:10388000D3189AB27B1901321A8031E0BB6B598888
:103890001E23FB181B88BA68D518BB6B9B881B2698
:1038A000BC191C22BA181288F86801931623FB1859
:1038B000009313002A00FFF791FE03002370BB1949
:1038C0001B78002B02D0BB191B785FE01623FB1876
:1038D0001A88BB6B5B88D31A9BB2013B9BB21BB2AD
:1038E000032213431BB29AB21E23FB1801321A8023
:1038F0001623FB181A88BB6B5B88D31A9BB2013B5B
:103900009BB21BB2032213431BB29AB218217B183D
:1039100001321A807A181C217B1812881B889A425F
:1039200010D9BB6B00221A70BB6B5A887B181B889E
:10393000D3189AB2BB6B5A803B68BA1D12881A80A2
:10394000002323E01823FA181C23FB1812881B8875
:103950009A420BD1BB6B01221A70BB6B00225A80BA
:103960003B68BA1D12881A8000230FE01823FA184A
:103970001C23FB1812881B889A4200D328E7BB6BD4
:1039800001221A70BB6B00225A8021E71800BD4645
:1039900009B0F0BDF0B5604CA54402AF02005F4B2A
:1039A000842109015B18DB191A705C4B5B18DB1969
:1039B0001A785B4913009B009B189B00CB180A33B5
:1039C0001B88002B01D10023A0E0564BFC18564D5C
:1039D0007A19524B842109015B18DB191B781100FD
:1039E000180000F04BFC030023707B195B684F4A02
:1039F000BA1813604E4BFB181800FFF7C1FE494E72
:103A0000BC194C4BFD1880231A010C23F918464BA6
:103A1000F818474BFB1800932B00FFF7C2FE03007A
:103A20002370BB191B78042B06D0BB191B78002B05
:103A300002D0BB191B7869E03E4BFB181A88802323
:103A40001B019A4204D0374BFB181B78002BD6D0B1
:103A5000384ABB181B88002B19D0BB181B881A00CA
:103A60000C23F918314C3B191B681800FFF748FE6E
:103A70002200BB181B68802109018C466344BA18D8
:103A80001360284BFB181B78002B02D1B7E7C04608
:103A900000E0C046244BFB189B68013B264A1A43B2
:103AA00022497B181B68D31A0133DA0A23483B18D2
:103AB0001A707B181B68224A94466344DA0A214C28
:103AC0003B191A70812109017B1800221A603B19E9
:103AD0001A787B185A603B181A787B189A601A4B30
:103AE000FA187B181100180001F0ECFB0B4B842234
:103AF00012019B18DB191A7813009B009B189B007E
:103B0000074A9B181800FFF793FB03001800BD46F7
:103B10000E4B9D44F0BDC046B4F7FFFFC7F7FFFF53
:103B2000540400203B080000240800003C0800006A
:103B30001C08000036080000FF0700003A080000DB
:103B40000000FCEF390800000C08000044080000E9
:103B5000F0B57A4CA54402AF7860794BFB1800228F
:103B60001A70784BFB1800221A700023764ABA1894
:103B7000136023E07B689968734BFB181A68130085
:103B80005B009B189B00CA1870497B1812781A704A
:103B90007B181A786E4913009B009B189B00CB186A
:103BA0000A331B88002B03D0664BFB1801221A70C6
:103BB000654ABB181B680133BA1813607B681B7910
:103BC0001A00614BFB181B689342D3DB5D4BFB185B
:103BD0001B78002B01D10023ABE080231A010823BE
:103BE000FB18FF2118000AF06DF80023564ABA1896
:103BF000136051E07B68996853483B181A681300BA
:103C00005B009B189B00CA18504D7B1912781A70E4
:103C10007B6899683B181A6813005B009B189B002F
:103C2000CB185B6882221201BA181360494EBC1986
:103C300081231B01FA187B191B781100180000F072
:103C40001DFB03002370BB191B78002B01D0002340
:103C50006FE0414D7B191800FFF792FD0823FA1819
:103C6000822000013B181B68D1183B181B689BB2CF
:103C700080221201D31A9AB2384BFC1881231B01FF
:103C8000F8187B1900932300FFF78BFD2E4ABB1811
:103C90001B680133BA1813607B681B791A002A4C21
:103CA0003B191B689342A5DB7B681B6880221201CD
:103CB000082179181800FFF723FD00233A19136033
:103CC0002CE07B689968204BFB181A6813005B0096
:103CD0009B189B00CA181D497B1812781A707B1814
:103CE0001A7813009B009B189B00194A9B18194DCA
:103CF0007C191800FFF79CFA030023702A00BB18F8
:103D00001B78002B04D00E4BFB18BA1812781A70CF
:103D10000D4ABB181B680133BA1813607B681B7906
:103D20001A00094BFB181B689342CADB044BFB18B3
:103D30001B781800BD460A4B9D44F0BDC4F7FFFF39
:103D40002F080000270800002808000026080000AF
:103D50005404002025080000080800000E08000098
:103D60003408000090B587B000AF02003960FB1D39
:103D70001A7000237B6116E00B2439192E487A69EA
:103D800013005B009B189B00C31806331B780B7055
:103D90003A19FB1D12781B789A4201D1022346E0A2
:103DA0007B6901337B617B69012BE5DD00233B618E
:103DB00039E00023FB6026E020493A6913005B00EC
:103DC0009B189B00CB1808331968FA6813005B0036
:103DD0009B189B00CA180B217B1812781A707A184E
:103DE000FB1D12781B789A420AD13A6913005B00D6
:103DF0009B189B00114A9A183B681A60012316E031
:103E0000FB680133FB600D493A6913005B009B18A6
:103E10009B00CB1804331B781A00FB689342CBDB62
:103E20003B6901333B613B69002BC2DB0023180077
:103E3000BD4607B090BDC046E8EA041080040020EB
:103E4000F0B589B002AFF860080011007B600B2369
:103E5000FB18021C1A7008203B180A1C1A8001006B
:103E60007B181B88013B9BB21BB2032213431BB27E
:103E70009AB27B1801321A80FB685B685A1DFB6896
:103E80009B689A4210D3FB681B7819004A4A0B00C2
:103E90009B005B189B00D3180A331B88002B01D0B2
:103EA0000B2384E0022382E0FB685B687B617B6913
:103EB0001B78FF2B1CD1FB689A68FB685B68D31AE0
:103EC00080225202934200D33C4B12217A18138075
:103ED000C04608231800FB181A8828231B18DB1972
:103EE0001B88D318DA1C7B181B889A4227DB15E045
:103EF0007B691B78FE2B05D07B691B78002B01D0DA
:103F0000032354E0FB685B687A695288033203211B
:103F10000A439B185A1CFB685A60ADE7FB681B7884
:103F20001900254A0B009B005B189B00D3180A332D
:103F30001B88002B01D00B2339E0022337E0FB68FC
:103F400058681126BC197D6808231A00FB181B88C5
:103F50009C460B23FB1819787B6B019328239B1835
:103F6000DB191B8800932B006246FFF7E2FA03007F
:103F70002370BB191B78002B02D0BB191B7816E0ED
:103F8000FB681B781A000C4913009B009B189B00D0
:103F9000CB1808331B88013398B2074913009B00E4
:103FA0009B189B00CB180833021C1A8000231800B2
:103FB000BD4607B0F0BDC04654040020FFFF00001E
:103FC000B0B588B000AF0023FB61CDE0A849FA6925
:103FD00013005B009B189B005B58FB600023BB61D8
:103FE000B1E0A349FA6913005B009B189B00CB1852
:103FF00008331968BA6913005B009B189B00CA1844
:1040000013203B1812781A709949FA6913005B0063
:104010009B189B00CB1808331968BA6913005B0022
:104020009B189B00CB185B68BB609149FA69130031
:104030005B009B189B00CB1808331968BA69130002
:104040005B009B189B00CA18BB1D12891A803B1885
:104050001A78884913009B009B189B005B58002B23
:1040600003D13B181B78012B01D90123FCE0132459
:104070003B191A78F968BB68C8187E4913009B0081
:104080009B189B0058507A49FA6913005B009B18F3
:104090009B00CB1804331B78013BBA699A420ED1BE
:1040A0003B191A78FB6880210901591871481300DF
:1040B0009B009B189B00C318043319601DE06C49DA
:1040C000FA6913005B009B189B00CB180833196832
:1040D000BB695A1C13005B009B189B00CB185968E6
:1040E0001323FB181A78FB68C918624813009B0059
:1040F0009B189B00C3180433196013203B181A78CF
:104100005C4913009B009B189B00CB181033BA1D11
:1041100012881A803B181A7813009B009B189B008A
:10412000544A9B1812257C191800FFF781F80300E8
:1041300023707B191B78002B02D07B191B7893E02E
:10414000BB690133BB614A49FA6913005B009B18E4
:104150009B00CB1804331B781A00BB69934200DA2A
:104160003FE7FB690133FB61FB69002B00DA2DE7B8
:1041700000237B6174E0132439193F487A691300E6
:104180005B009B189B00C31806331B780B703B1910
:104190001A78384913009B009B189B005B58002B32
:1041A00003D13B191B78012B01D901235CE01324B7
:1041B0003B191A78304879690B005B005B189B004B
:1041C00018582C4913009B009B189B0058502A49F3
:1041D0007A6913005B009B189B00595826487A693E
:1041E00013005B009B189B00C31804331B88180046
:1041F0003B191A7809181F4813009B009B189B0055
:10420000C318043319603B191A781B4879690B00ED
:104210005B005B189B00C31808331888154913000E
:104220009B009B189B00CB181033021C1A803B1973
:104230001A7813009B009B189B000E4A9B181225AE
:104240007C191800FEF7F4FF030023707B191B781C
:10425000002B02D07B191B7806E07B6901337B6160
:104260007B69012B87DD00231800BD4608B0B0BD77
:104270008004002054040020E8EA041080B582B0D5
:1042800000AF02003960FB1D1A70FB1D1B78012B6B
:1042900001D9012320E0FB1D1A78114913009B006E
:1042A0009B189B005A583B685A60FB1D1A780C49B2
:1042B00013009B009B189B00CB1804331A683B68C3
:1042C0009A603B6801221A733B68FA1D12781A70D3
:1042D0003B6800225A7300231800BD4602B080BD1F
:1042E0005404002090B589B004AFF86008001100B4
:1042F0007B600B23FB18021C1A700823FB180A1C96
:104300001A80FB681B781900124A0B009B005B188F
:104310009B00D3180E331B78002B01D00A2315E025
:104320007C680823FB181A880B23FB181978F86897
:1043300000230393002302937B6A01932023FB183D
:104340001B8800932300FFF73FF803001800BD46C9
:1043500005B090BD5404002090B587B002AFF8605E
:1043600008007A6019000A23FB18021C1A8008232F
:10437000FB180A1C1A80FB681B7819000F4A0B00F7
:104380009B005B189B00D3180E331B78002B01D0C9
:104390000A230FE00823FB181C887A680A23FB18FD
:1043A0001988F868002301933B6A00932300FFF704
:1043B00015F903001800BD4605B090BD5404002057
:1043C000F0B5C64600B588B002AFF860080011002D
:1043D0007B600B231C00FB18021C1A7008203B1882
:1043E0000A1C1A801726B046B8447D683B181A8804
:1043F0002300FB181978F8687B6B019328230824A5
:104400001B19DB191B8800932B00FFF719FD030014
:1044100042461370BB191B78002B02D0BB191B78C6
:104420002CE0FB681B781900174A0B009B005B18F7
:104430009B00D3180C331A8808231800F918282376
:104440001B18DB1909881B88CB189BB2013B9BB258
:104450001BB203210B431BB29BB2D31A9BB2FA6867
:1044600012781100053B98B2074A0B009B005B18BD
:104470009B00D3180C33021C1A8000231800BD4681
:1044800006B080BCB846F0BD54040020B0B584B07E
:1044900000AF0200FB1D1A700F257C190823FA18C3
:1044A000FB1D1B7811001800FFF75CFC0300237054
:1044B0007B191B78022B06D1FB1D1B781800FFF718
:1044C00069FA03000BE00F23FB181B78012B05D1C1
:1044D000BB681800FFF73CFB030000E00123180055
:1044E000BD4604B0B0BD000090B583B000AFFC1D68
:1044F00000F016F803002370FB1D1B787F2B08D8F3
:10450000FB1D1B781800FFF7C1FF044B180009F0D2
:104510001FFA00231800BD4603B090BD88EA0410BE
:1045200080B582B000AF2B4B00229A56FB1D1A704B
:10453000FB1D1A78284913009B009B189B00CB1881
:104540000A331B88002B28D0FB1D1A782249130040
:104550009B009B189B00CB180C331988FB1D1A7805
:104560001D4813009B009B189B00C31810331B8829
:10457000994212D2FB1D1B780133DBB25AB2154BA4
:104580001A70144B1B785BB2022B02D1114B002224
:104590001A70FB1D1B785BB217E0FB1D1A78FB1D20
:1045A00001321A70FB1D1B78022B02D1FB1D002269
:1045B0001A70FB1D1B78074A127852B29342B7D18A
:1045C000044B00221A7001235B421800BD4602B062
:1045D00080BDC0467C0400205404002080B500AF9C
:1045E000034B01221A6000231800BD4680BDC0465F
:1045F0009008002080B584B000AF0F217B18002206
:104600001A70EFF310837B607B68BB6072B6C046A4
:104610000C4B1B68032B03D07B18FE221A7002E0A0
:10462000084B01221A60BB683B603B6883F310882B
:10463000C0460F23FB181B785BB21800BD4604B0C0
:1046400080BDC0469008002080B500AFC046BD4682
:1046500080BD80B582B000AF02003960FB1D1A70CA
:1046600011231800BD4602B080BD000080B500AF28
:10467000054B5B6904221340042B01D1012300E0A8
:1046800000231800BD4680BD0000504880B500AF33
:10469000034BDA698023DB0013401800BD4680BD60
:1046A0000000504880B582B000AF7860064BDB69EF
:1046B000064A13401900044B7A680A43DA61C0467F
:1046C000BD4602B080BDC04600005048FFFDFFFF60
:1046D00080B500AF074BDA6980239B001A40802326
:1046E0009B009A4201D1012300E000231800BD463F
:1046F00080BDC0460000504880B582B000AF7860F1
:10470000064BDB690F2293431900044B7A680A4376
:10471000DA61C046BD4602B080BDC04600005048C8
:1047200080B500AF20231800BD4680BD80B500AF26
:104730001F231800BD4680BD80B582B000AF0200C7
:10474000FB1D1A70FB1D1B78002B07D01D4B1B781F
:10475000002B0AD11B4B01221A7006E0194B1B7863
:10476000012B02D1174B00221A70FFF7B1FF031E75
:1047700024D1FFF78BFF02008023DB009A421DD07B
:1047800080239B001800FFF78DFFC046FFF76EFFE8
:10479000031EFBD1FB1D1B78002B03D00E20FFF75F
:1047A000ABFF02E00420FFF7A7FF0020FFF77AFF2E
:1047B000C046FFF75BFF031EFBD000E0C046BD46CE
:1047C00002B080BD8404002080B500AFC046BD4665
:1047D00080BD80B500AF8023DB051B680F2213402E
:1047E0001800BD4680BD80B500AF8023DB051B6887
:1047F0001B090F2213401800BD4680BD80B500AFD5
:104800008023DB055B681800BD4680BD80B500AF26
:10481000034B1B681B041B0C1800BD4680BDC04623
:104820001410004080B582B000AF084B1B685B0CD1
:10483000032213407B607B68002B01D101237B6046
:104840007B681800BD4602B080BDC0461410004011
:1048500080B584B000AF78607B68FF221A70FFF7E4
:10486000CDFF0300FB60FB68184A934202D17B68CE
:1048700006221A70FFF7B7FF0300DAB27B685A709E
:10488000FFF7A7FF0300DAB27B689A70FFF7B6FF65
:1048900002007B685A60FFF7B9FF030001339A00FA
:1048A0007B689A60FFF7BEFF031E07D0FFF7BAFFD1
:1048B000030001339A037B68DA6003E07B68C0225F
:1048C000D201DA60C046BD4604B080BD412003027B
:1048D00080B500AF054B1B6810221340102B01D18F
:1048E000012300E000231800BD4680BD00005048B1
:1048F00080B582B000AF786039607B6804331A6895
:104900003B68D9437B6804330A401A607B681968A6
:104910007B683A680A431A60C046BD4602B080BD53
:1049200080B584B000AF7860074B196D064B7A688C
:104930000A431A65044B1B6D7A681340FB60FB68E1
:10494000C046BD4604B080BD0000404880B584B07C
:1049500000AF7860074B996D064B7A680A439A65F9
:10496000044B9B6D7A681340FB60FB68C046BD46F4
:1049700004B080BD0000404880B584B000AF0200A4
:104980003960FB1D1A700023FB603B68002B03D1CC
:1049900002235B42FB6026E0FB1D1978FB1D1A78A1
:1049A000134B8900C958134B94204243D150FB1D2F
:1049B0001B7894225A430F4BD318180000F068F864
:1049C000FB68002B0FD1FB1D1B7894225A43094B27
:1049D000D3183A681100180000F028F8031E02D01E
:1049E00004235B42FB60FB681800BD4604B080BD39
:1049F000940800208804002080B582B000AF786061
:104A0000084B1B781A0094235A43074BD018FA23FB
:104A10009B00391D012203F047FF7B681800BD464B
:104A200002B080BD1C0500208804002080B582B043
:104A300000AF786039603B681A687B685A603B68F1
:104A40005A687B689A603B681B891A007B68DA6049
:104A50003B685B891A007B681A617B680C225A618B
:104A60003B689B891A007B689A617B6880221202EE
:104A7000DA617B6800221A627B6800225A627B68D6
:104A8000180003F0BBFE03001800BD4602B080BD55
:104A900090B589B000AF78600420FFF741FF08208F
:104AA000FFF73EFF8023DB001800FFF74FFF0C24C9
:104AB0003B1902221A603B1902225A603B1902225A
:104AC000DA603B1901229A603B1902221A613A19F5
:104AD0009023DB051100180000F074FCFFF7F8FECE
:104AE000031E06D03B191B680A4A19001000FFF785
:104AF000FFFE0C217B1801221A607B1800221A612C
:104B00007B18054A1900100000F05CFCC046BD4649
:104B100009B090BD200050480000104890B583B007
:104B200000AF02003960FB1D1A70FB1D1B787F2B44
:104B300028D82F4AFB1D1B785BB29B08C0339B0013
:104B40009B58FA1D1278110003220A40D200FF215F
:104B500091400A00D2431A4011003B689B01FF229A
:104B60001A40FB1D1B78180003230340DB009A400A
:104B70001F48FB1D1B785BB29B080A43C0339B0098
:104B80001A5031E01B4AFB1D1B7819000F230B4004
:104B9000083B9B0806339B00D31804331B68FA1D9F
:104BA0001278110003220A40D200FF2191400A002E
:104BB000D2431A4011003B689B01FF221A40FB1DA3
:104BC0001B78180003230340DB009A400948FB1DB3
:104BD0001B781C000F232340083B9B080A43063325
:104BE0009B00C31804331A60C046BD4603B090BD95
:104BF00000E100E000ED00E080B500AFBFF34F8FB3
:104C0000C046044B044ADA60BFF34F8FC046C0462B
:104C1000FDE7C04600ED00E00400FA0590B587B05E
:104C200000AF644A9423D358002B0ED1624B1B690A
:104C3000002B03D1604B9B6B002B06D05F4B0122F6
:104C40009A60FBF7D1FAFFF7D7FF5D4B5D4A9A6098
:104C50005B4B9A68594B1A61574B5A68564B202147
:104C60000A435A60544B5A68534B40210A435A60D6
:104C7000514B5A68504B80210A435A604E4B5A6838
:104C80004D4B51490A405A60C0464B4B5B69042268
:104C90001340042BF9D1484BDB69302293431A00AF
:104CA000454B20210A43DA61434BDA69424B4749BD
:104CB0000A40DA61404BDA693F4B802149000A43E0
:104CC000DA61434B1B68434A934255D01F233B6133
:104CD0000823FB600A23BB6003237B60354BDB6842
:104CE0001E2293431900FB685A00324B0A43DA60D4
:104CF000304BDA682F4B01210A43DA602D4BDB6819
:104D0000354A134019003B691A062A4B0A43DA60F8
:104D1000284BDA68274B802109040A43DA60264AC7
:104D20009423D3582D4A1A40BB689901F0239B0065
:104D30000B402149134394228B501F4A9423D3588C
:104D40001D492022134394228B501B4A9423D3588D
:104D5000234A1A407B68D902E0239B010B40164985
:104D6000134394228B50144A9423D358124980221F
:104D7000D200134394228B501723FB1800221A7081
:104D80000DE017243B191B785BB203211800FFF7D5
:104D9000C5FE21007B181A787B1801321A70172380
:104DA000FB181B781F2BECD962B6C046C046BD4627
:104DB00007B090BD000040480000504804000020AB
:104DC00000ED00E000000410FFFEFFFFFFFBFFFF0F
:104DD000F81E0010CCECBCFCFFFFFFC03FFCFFFF47
:104DE000FFC7FFFF80B582B000AF134B9B685B0825
:104DF000DAB2FB1D01210A401A700F4B9B681B0A97
:104E0000DAB2BB1D07210A401A70FB1D1B78002B6C
:104E100007D0BB1D1B78013B084ADA40084B1A60DB
:104E200005E0BB1D1B78074ADA40054B1A60C046F7
:104E3000BD4602B080BDC046000040480048E801C1
:104E4000980800200090D00380B582B000AFFB1D11
:104E500000221A70032000F00FF8031E03D0FB1D80
:104E600001221A7001E0FCF727F9FB1D1B781800DE
:104E7000BD4602B080BD000090B585B000AF78603F
:104E80000F23FB1800221A701D4B1B78002B2CD00F
:104E900003F03AFA04001A4B1B781900FA23980021
:104EA000FBF7C6F9030019002000FBF7C1F9030066
:104EB000180000F020F9031E12D17B68032B0AD8DA
:104EC000796801235B420022180000F0EFF80D4BD7
:104ED0007A681A600DE00F23FB1801221A7008E0AF
:104EE0000F23FB1801221A7003E00F23FB18012285
:104EF0001A700F23FB181B781800BD4605B090BD33
:104F0000A00800209C08002080B500AF054B1B784E
:104F10001A00054B1B68D218034B1A60C046BD46E9
:104F200080BDC046A00800202005002080B500AF4D
:104F3000024B1B681800BD4680BDC04620050020FE
:104F400080B500AF024B1B681800BD4680BDC0464F
:104F50009C08002080B582B000AF0200FB1D1A70D3
:104F6000FB1D1B787F2B09D8FB1D1B781A001F2304
:104F70001A40044B012191400A001A60C046BD4608
:104F800002B080BD00E100E090B583B000AF020048
:104F90003960FB1D1A70FB1D1B787F2B28D82F4A08
:104FA000FB1D1B785BB29B08C0339B009B58FA1D0E
:104FB0001278110003220A40D200FF2191400A001A
:104FC000D2431A4011003B689B01FF221A40FB1D8F
:104FD0001B78180003230340DB009A401F48FB1D89
:104FE0001B785BB29B080A43C0339B001A5031E028
:104FF0001B4AFB1D1B7819000F230B40083B9B0825
:1050000006339B00D31804331B68FA1D1278110075
:1050100003220A40D200FF2191400A00D2431A40E5
:1050200011003B689B01FF221A40FB1D1B781800F2
:1050300003230340DB009A400948FB1D1B781C003A
:105040000F232340083B9B080A4306339B00C318E9
:1050500004331A60C046BD4603B090BD00E100E0D5
:1050600000ED00E080B582B000AF78607B685A1E2A
:1050700080235B049A4201D3012310E00A4B7A6833
:10508000013A5A6001235B4203211800FFF77CFFBD
:10509000054B00229A60044B07221A600023180077
:1050A000BD4602B080BDC04610E000E080B584B0CF
:1050B00000AFB9607A600F217B18021C1A70BA68C1
:1050C0007B181B785BB211001800FFF75DFFC0462C
:1050D000BD4604B080BD80B582B000AF0200FB1DAC
:1050E0001A70FB1D1B785BB21800FFF733FFC04638
:1050F000BD4602B080BD80B582B000AF78607B68ED
:105100001800FFF7AFFF03001800BD4602B080BDD6
:10511000B0B586B000AFF860B9607A601D4B1B78FF
:10512000012B01D1022331E01A4B01221A70194BD5
:1051300000225A6017257C19FA239B00180000F002
:105140002BF8030023707B191B78002B18D1FB6808
:10515000002B06D17A68BB681100180000F056F8E1
:1051600005E07A68BB681100180000F071F8172399
:10517000FC18FA239B00180000F00EF803002370BF
:10518000044B00221A701723FB181B781800BD4629
:1051900006B0B0BD2405002080B584B000AF7860B3
:1051A000FFF7C4FE0300FB600CE07B68013309D00D
:1051B000FFF7BCFE0200FB68D31A7A689A4201D856
:1051C00003231BE00F4B1B6901221340012BECD181
:1051D0000C4B1B690C2213400C2B0ED1094B9A6807
:1051E000094B5B681A43084B5A60064B1A69054B1A
:1051F0000C210A431A61012300E000231800BD4678
:1052000004B080BD001000402405002080B582B0AD
:1052100000AF786039600C4B1A690B4B0F210A43C1
:105220001A617B68094A944663449A08064BD20384
:10523000D20B9A61044B3A681A64034B33221A600A
:10524000C046BD4602B080BD001000400000FCEF2B
:1052500080B584B000AF786039603B68FB60174B65
:105260001A69164B0F210A431A617B68144A944647
:1052700063449A08114BD203D20B9A610F4AFB6820
:105280001B681364FB680433FB600C4AFB681B68F3
:105290005364FB680433FB60084AFB681B68936433
:1052A000FB680433FB60054AFB681B68D364034B4F
:1052B000CC221A60C046BD4604B080BD001000403C
:1052C0000000FCEFB0B584B000AF78603960274BC8
:1052D0001B78012B01D1022343E0244B01221A70D9
:1052E000224B00225A607B681B68FF2B0BD100F019
:1052F0003FF80F23FC18FA239B001800FFF74CFF20
:105300000300237027E03B68012252421A607B6849
:105310005B68BB6017E0BB68180000F039F80F2528
:105320007C19FA239B001800FFF736FF0300237057
:105330007B191B78002B03D03B68BA681A600AE01F
:10534000BB680133BB607B685A687B689B68D31875
:10535000BA689A42DFD3054B00221A700F23FB185C
:105360001B781800BD4604B0B0BDC046240500201F
:1053700080B500AF054B1A69044B0F210A431A612F
:10538000024B22221A60C046BD4680BD001000407C
:1053900080B582B000AF7860094B1A69084B0F21C5
:1053A0000A431A617B68DB029A08054BD203D20BD1
:1053B0009A61034B11221A60C046BD4602B080BDFF
:1053C0000010004080B586B000AF786039600023DF
:1053D0007B6194E13B681B6801217A6991400A0076
:1053E0001340FB60FB68002B00D185E13B685B68E4
:1053F00003221340012B05D03B685B680322134056
:10540000022B30D17B689B683B617B695B00032288
:105410009A401300DA433B6913403B613B68DA680A
:105420007B695B009A4013003A6913433B617B68D8
:105430003A699A607B685B683B6101227B699A40AC
:105440001300DA433B6913403B613B685B681B090F
:1054500001221A407B699A4013003A6913433B6169
:105460007B683A695A603B685B6803221340032BF0
:1054700017D07B68DB683B617B695B0003229A4045
:105480001300DA433B6913403B613B689A687B69D0
:105490005B009A4013003A6913433B617B683A69A9
:1054A000DA603B685B6803221340022B23D17B69DF
:1054B000DA087B6808329200D3583B617B69072287
:1054C00013409B000F229A401300DA433B691340BC
:1054D0003B613B681A697B6907210B409B009A403E
:1054E00013003A6913433B617B69DA087B68083231
:1054F00092003969D1507B681B683B617B695B0016
:1055000003229A401300DA433B6913403B613B6836
:105510005B6803221A407B695B009A4013003A697A
:1055200013433B617B683A691A603B685A68C02341
:105530009B02134000D1DFE03B685A688023DB0206
:10554000134031D08023DB05DB683B617A68902310
:10555000DB059A4211D101227B699A401300DB439B
:105560001A003B6913403B6101227B699A4013009A
:105570001A003B6913433B6112E001227B699A40A8
:1055800013001B04DB431A003B6913403B610122FB
:105590007B699A4013001B041A003B6913433B616B
:1055A0008023DB053A69DA603B685A6880235B0335
:1055B000134031D08023DB051B693B617A6890235F
:1055C000DB059A4211D101227B699A401300DB432B
:1055D0001A003B6913403B6101227B699A4013002A
:1055E0001A003B6913433B6112E001227B699A4038
:1055F00013001B04DB431A003B6913403B6101228B
:105600007B699A4013001B041A003B6913433B61FA
:105610008023DB053A691A613B685A688023DB0303
:10562000134031D08023DB055B693B617A689023AE
:10563000DB059A4211D101227B699A401300DB43BA
:105640001A003B6913403B6101227B699A401300B9
:105650001A003B6913433B6112E001227B699A40C7
:1056600013001B04DB431A003B6913403B6101221A
:105670007B699A4013001B041A003B6913433B618A
:105680008023DB053A695A613B685A6880235B02D4
:10569000134031D08023DB059B693B617A689023FE
:1056A000DB059A4211D101227B699A401300DB434A
:1056B0001A003B6913403B6101227B699A40130049
:1056C0001A003B6913433B6112E001227B699A4057
:1056D00013001B04DB431A003B6913403B610122AA
:1056E0007B699A4013001B041A003B6913433B611A
:1056F0008023DB053A699A617B6901337B613B68F2
:105700001A687B69DA40131E00D063E6C046C046C3
:10571000BD4606B080BD80B582B000AF786008009D
:105720001100BB1C021C1A807B1C0A1C1A707B1CFB
:105730001B78002B04D0BB1C1A887B689A6103E09D
:10574000BB1C1A887B689A62C046BD4602B080BD09
:1057500080B584B000AF78600F23FB1800221A7068
:105760007B68002B45D07B681B79DBB2002B03D113
:105770007B681800FBF7ACFCFFF7D8FB0300BB60AD
:105780007B6802221A7111E07B681B6801221A6093
:10579000FFF7CCFB0200BB68D21AFA239B009A42A7
:1057A00004D90F23FB1803221A7006E07B681B68DC
:1057B0001B6801221340012BE6D10F23FB181B7835
:1057C000002B0FD17B681B689A687B681B68D0210F
:1057D00049030A439A607B6800229A607B68012231
:1057E0001A710AE07B6804229A607B6803221A71AE
:1057F00003E00F23FB1801221A700F23FB181B78FC
:105800001800BD4604B080BD80B586B000AF78609A
:105810007B68180000F06AF803007B617B681B68F6
:105820001B683B617B681B685B68FB603A6980238F
:105830005B0313400FD0FA6880235B0313400AD048
:105840007B689B6801221A437B689A607B681B68AF
:10585000802252039A603A6980231B0313400FD0C1
:10586000FA6880231B0313400AD07B689B680222DE
:105870001A437B689A607B681B68802212039A60D7
:105880007B69242B0DD17B681A68F8231B01D35840
:10589000154A934205D07B689B6808221A437B68AF
:1058A0009A607B689B68002B03D07B681800FDF72B
:1058B000A9FB3A6980239B02134010D0FA68802329
:1058C0009B0213400BD07B681B68802292029A6077
:1058D0007B6801221A717B681800FDF787FBC046C0
:1058E000BD4606B080BDC0460DD6000080B582B072
:1058F00000AF78607B681B681B681B0A3F2213405F
:105900001800BD4602B080BD80B584B000AF78609D
:1059100039600F23FB1800221A707B68002B03D01C
:105920007B68012B0ED01BE0134B196A124B3A68AF
:105930000A431A62104B5A6A3B68D9430E4B0A401D
:105940005A6212E00C4B996A0B4B3A680A439A620E
:10595000094BDA6A3B68D943074B0A40DA6204E034
:105960000F23FB1801221A70C0460F23FB181B7867
:105970001800BD4604B080BD0000504880B584B01A
:1059800000AF786039600F23FB1800221A707B6823
:10599000002B03D07B68012B0ED01BE0134B596A00
:1059A000124B3A680A435A62104B1A6A3B68D94351
:1059B0000E4B0A401A6212E00C4BD96A0B4B3A6844
:1059C0000A43DA62094B9A6A3B68D943074B0A409B
:1059D0009A6204E00F23FB1801221A70C0460F23BD
:1059E000FB181B781800BD4604B080BD000050486D
:1059F00080B582B000AF7860044B1B68034B7A68B7
:105A00001A60C046BD4602B080BDC046C00000203E
:105A100080B582B000AF7860074B5B68074A1340DF
:105A200019007B681B021B041A0C034B0A435A60C3
:105A3000C046BD4602B080BDC0000020FF00FFFF91
:105A400080B582B000AF7860084B5B68084A1340AD
:105A500019007B681A04FF231B041A40034B0A43F6
:105A60005A60C046BD4602B080BDC046C00000209E
:105A7000FFFF00FF80B582B000AF7860064B5B6827
:105A80001B02190A7B681A06034B0A435A60C04678
:105A9000BD4602B080BDC046C000002080B582B0C7
:105AA00000AF7860074B9B68FF22934319007B6827
:105AB000FF221A40034B0A439A60C046BD4602B01B
:105AC00080BDC046C000002080B582B000AF7860C5
:105AD000074B9B68074A134019007B681B021B0495
